{
  "contractName": "ShopingItem",
  "abi": [
    {
      "anonymous": false,
      "inputs": [],
      "name": "update_items",
      "type": "event"
    },
    {
      "anonymous": false,
      "inputs": [],
      "name": "update_account",
      "type": "event"
    },
    {
      "anonymous": false,
      "inputs": [],
      "name": "update_history",
      "type": "event"
    },
    {
      "anonymous": false,
      "inputs": [],
      "name": "update_balance",
      "type": "event"
    },
    {
      "constant": false,
      "inputs": [
        {
          "name": "_id",
          "type": "bytes32"
        }
      ],
      "name": "get_desc_image",
      "outputs": [
        {
          "name": "",
          "type": "bytes32"
        },
        {
          "name": "",
          "type": "string"
        },
        {
          "name": "",
          "type": "string"
        }
      ],
      "payable": false,
      "stateMutability": "nonpayable",
      "type": "function"
    },
    {
      "constant": false,
      "inputs": [
        {
          "name": "_name",
          "type": "bytes16"
        },
        {
          "name": "_amount",
          "type": "int8"
        },
        {
          "name": "_price",
          "type": "int8"
        },
        {
          "name": "desc",
          "type": "string"
        },
        {
          "name": "image",
          "type": "string"
        }
      ],
      "name": "sell_item",
      "outputs": [],
      "payable": false,
      "stateMutability": "nonpayable",
      "type": "function"
    },
    {
      "constant": false,
      "inputs": [],
      "name": "check_account",
      "outputs": [
        {
          "name": "",
          "type": "bool"
        },
        {
          "name": "",
          "type": "bytes16"
        }
      ],
      "payable": false,
      "stateMutability": "nonpayable",
      "type": "function"
    },
    {
      "constant": false,
      "inputs": [
        {
          "name": "nickname",
          "type": "bytes16"
        }
      ],
      "name": "init_account",
      "outputs": [],
      "payable": false,
      "stateMutability": "nonpayable",
      "type": "function"
    },
    {
      "constant": false,
      "inputs": [],
      "name": "get_itemlist",
      "outputs": [
        {
          "name": "",
          "type": "address[]"
        },
        {
          "name": "",
          "type": "bytes32[]"
        },
        {
          "name": "",
          "type": "bytes16[]"
        },
        {
          "name": "",
          "type": "int8[]"
        },
        {
          "name": "",
          "type": "int8[]"
        },
        {
          "name": "",
          "type": "bytes32[]"
        }
      ],
      "payable": false,
      "stateMutability": "nonpayable",
      "type": "function"
    },
    {
      "constant": false,
      "inputs": [
        {
          "name": "item_id",
          "type": "bytes32"
        },
        {
          "name": "name",
          "type": "bytes16"
        },
        {
          "name": "_amount",
          "type": "int8"
        },
        {
          "name": "_price",
          "type": "int8"
        },
        {
          "name": "desc",
          "type": "string"
        },
        {
          "name": "image",
          "type": "string"
        }
      ],
      "name": "modify_item",
      "outputs": [],
      "payable": false,
      "stateMutability": "nonpayable",
      "type": "function"
    },
    {
      "constant": false,
      "inputs": [
        {
          "name": "item_id",
          "type": "bytes32"
        }
      ],
      "name": "delete_item",
      "outputs": [],
      "payable": false,
      "stateMutability": "nonpayable",
      "type": "function"
    },
    {
      "constant": false,
      "inputs": [
        {
          "name": "seller_address",
          "type": "address"
        },
        {
          "name": "item_id",
          "type": "bytes32"
        },
        {
          "name": "amount_of_buy",
          "type": "int8"
        },
        {
          "name": "value",
          "type": "uint256"
        },
        {
          "name": "time",
          "type": "uint256"
        }
      ],
      "name": "buy_item",
      "outputs": [
        {
          "name": "",
          "type": "uint256"
        }
      ],
      "payable": false,
      "stateMutability": "nonpayable",
      "type": "function"
    },
    {
      "constant": false,
      "inputs": [
        {
          "name": "i",
          "type": "uint256"
        }
      ],
      "name": "get_trade_history",
      "outputs": [
        {
          "name": "",
          "type": "uint256"
        },
        {
          "name": "",
          "type": "bytes32"
        },
        {
          "name": "",
          "type": "uint256"
        },
        {
          "name": "",
          "type": "int8"
        },
        {
          "name": "",
          "type": "bytes32"
        },
        {
          "name": "",
          "type": "bytes16"
        },
        {
          "name": "",
          "type": "uint256"
        },
        {
          "name": "",
          "type": "int8"
        },
        {
          "name": "",
          "type": "int8"
        }
      ],
      "payable": false,
      "stateMutability": "nonpayable",
      "type": "function"
    },
    {
      "constant": false,
      "inputs": [],
      "name": "get_trade_history_length",
      "outputs": [
        {
          "name": "",
          "type": "uint256"
        }
      ],
      "payable": false,
      "stateMutability": "nonpayable",
      "type": "function"
    },
    {
      "constant": false,
      "inputs": [
        {
          "name": "value",
          "type": "uint256"
        }
      ],
      "name": "top_up",
      "outputs": [
        {
          "name": "",
          "type": "bool"
        }
      ],
      "payable": true,
      "stateMutability": "payable",
      "type": "function"
    },
    {
      "constant": false,
      "inputs": [
        {
          "name": "value",
          "type": "uint256"
        }
      ],
      "name": "withdraw",
      "outputs": [
        {
          "name": "",
          "type": "bool"
        }
      ],
      "payable": false,
      "stateMutability": "nonpayable",
      "type": "function"
    },
    {
      "constant": false,
      "inputs": [
        {
          "name": "i",
          "type": "uint256"
        },
        {
          "name": "status",
          "type": "int8"
        }
      ],
      "name": "refund",
      "outputs": [
        {
          "name": "",
          "type": "bool"
        }
      ],
      "payable": false,
      "stateMutability": "nonpayable",
      "type": "function"
    },
    {
      "constant": false,
      "inputs": [
        {
          "name": "i",
          "type": "uint256"
        },
        {
          "name": "status",
          "type": "int8"
        }
      ],
      "name": "finish_trade",
      "outputs": [
        {
          "name": "",
          "type": "bool"
        }
      ],
      "payable": false,
      "stateMutability": "nonpayable",
      "type": "function"
    },
    {
      "constant": false,
      "inputs": [],
      "name": "get_balance",
      "outputs": [
        {
          "name": "",
          "type": "uint256"
        }
      ],
      "payable": false,
      "stateMutability": "nonpayable",
      "type": "function"
    }
  ],
  "bytecode": "0x60806040526000600455600a60055534801561001a57600080fd5b5061337e8061002a6000396000f3006080604052600436106100db576000357c0100000000000000000000000000000000000000000000000000000000900463ffffffff1680631e9281e1146100e057806325bd07b7146101c65780632e1a7d4d146102eb57806330e06a2f1461033057806362b00709146103705780636c4e4c1c146103c257806384dee1de14610414578063851d7d71146105e8578063a16c515a14610613578063c1cfb99a14610707578063dac7a81d14610732578063de4dc4fd146107f3578063e4e0949514610879578063f1ef9af2146108b1578063f6b62145146108e2575b600080fd5b3480156100ec57600080fd5b506101c460048036038101908080356fffffffffffffffffffffffffffffffff19169060200190929190803560000b9060200190929190803560000b9060200190929190803590602001908201803590602001908080601f0160208091040260200160405190810160405280939291908181526020018383808284378201915050505050509192919290803590602001908201803590602001908080601f016020809104026020016040519081016040528093929190818152602001838380828437820191505050505050919291929050505061093e565b005b3480156101d257600080fd5b506101f56004803603810190808035600019169060200190929190505050610c06565b6040518084600019166000191681526020018060200180602001838103835285818151815260200191508051906020019080838360005b8381101561024757808201518184015260208101905061022c565b50505050905090810190601f1680156102745780820380516001836020036101000a031916815260200191505b50838103825284818151815260200191508051906020019080838360005b838110156102ad578082015181840152602081019050610292565b50505050905090810190601f1680156102da5780820380516001836020036101000a031916815260200191505b509550505050505060405180910390f35b3480156102f757600080fd5b5061031660048036038101908080359060200190929190505050610d86565b604051808215151515815260200191505060405180910390f35b34801561033c57600080fd5b5061036e60048036038101908080356fffffffffffffffffffffffffffffffff19169060200190929190505050610eb1565b005b34801561037c57600080fd5b506103a860048036038101908080359060200190929190803560000b906020019092919050505061101c565b604051808215151515815260200191505060405180910390f35b3480156103ce57600080fd5b506103fa60048036038101908080359060200190929190803560000b90602001909291905050506113b3565b604051808215151515815260200191505060405180910390f35b34801561042057600080fd5b5061042961180f565b6040518080602001806020018060200180602001806020018060200187810387528d818151815260200191508051906020019060200280838360005b83811015610480578082015181840152602081019050610465565b5050505090500187810386528c818151815260200191508051906020019060200280838360005b838110156104c25780820151818401526020810190506104a7565b5050505090500187810385528b818151815260200191508051906020019060200280838360005b838110156105045780820151818401526020810190506104e9565b5050505090500187810384528a818151815260200191508051906020019060200280838360005b8381101561054657808201518184015260208101905061052b565b50505050905001878103835289818151815260200191508051906020019060200280838360005b8381101561058857808201518184015260208101905061056d565b50505050905001878103825288818151815260200191508051906020019060200280838360005b838110156105ca5780820151818401526020810190506105af565b505050509050019c5050505050505050505050505060405180910390f35b3480156105f457600080fd5b506105fd611ee1565b6040518082815260200191505060405180910390f35b34801561061f57600080fd5b50610705600480360381019080803560001916906020019092919080356fffffffffffffffffffffffffffffffff19169060200190929190803560000b9060200190929190803560000b9060200190929190803590602001908201803590602001908080601f0160208091040260200160405190810160405280939291908181526020018383808284378201915050505050509192919290803590602001908201803590602001908080601f0160208091040260200160405190810160405280939291908181526020018383808284378201915050505050509192919290505050611f2e565b005b34801561071357600080fd5b5061071c61209e565b6040518082815260200191505060405180910390f35b34801561073e57600080fd5b5061075d600480360381019080803590602001909291905050506120e8565b604051808a815260200189600019166000191681526020018881526020018760000b60000b81526020018660001916600019168152602001856fffffffffffffffffffffffffffffffff19166fffffffffffffffffffffffffffffffff191681526020018481526020018360000b60000b81526020018260000b60000b8152602001995050505050505050505060405180910390f35b3480156107ff57600080fd5b50610863600480360381019080803573ffffffffffffffffffffffffffffffffffffffff1690602001909291908035600019169060200190929190803560000b906020019092919080359060200190929190803590602001909291905050506124fa565b6040518082815260200191505060405180910390f35b61089760048036038101908080359060200190929190505050612b90565b604051808215151515815260200191505060405180910390f35b3480156108bd57600080fd5b506108e06004803603810190808035600019169060200190929190505050612c37565b005b3480156108ee57600080fd5b506108f76130bd565b6040518083151515158152602001826fffffffffffffffffffffffffffffffff19166fffffffffffffffffffffffffffffffff191681526020019250505060405180910390f35b6000600260003373ffffffffffffffffffffffffffffffffffffffff1673ffffffffffffffffffffffffffffffffffffffff16815260200190815260200160002060000160109054906101000a900460ff16151561099b57600080fd5b6109a66005546131eb565b9050600260003373ffffffffffffffffffffffffffffffffffffffff1673ffffffffffffffffffffffffffffffffffffffff16815260200190815260200160002060020181908060018154018082558091505090600182039060005260206000200160009091929091909150906000191690555085600260003373ffffffffffffffffffffffffffffffffffffffff1673ffffffffffffffffffffffffffffffffffffffff1681526020019081526020016000206004016000836000191660001916815260200190815260200160002060000160006101000a8154816fffffffffffffffffffffffffffffffff02191690837001000000000000000000000000000000009004021790555084600260003373ffffffffffffffffffffffffffffffffffffffff1673ffffffffffffffffffffffffffffffffffffffff1681526020019081526020016000206004016000836000191660001916815260200190815260200160002060000160106101000a81548160ff021916908360000b60ff16021790555083600260003373ffffffffffffffffffffffffffffffffffffffff1673ffffffffffffffffffffffffffffffffffffffff1681526020019081526020016000206004016000836000191660001916815260200190815260200160002060000160116101000a81548160ff021916908360000b60ff160217905550610bb08184846131f8565b600160046000828254019250508190555060016005600082825401925050819055507f0d54c2d26ca57a12677c490f254d19a0ac84041ab769e1e6bf705991394a3a2360405160405180910390a1505050505050565b6000606080836000808660001916600019168152602001908152602001600020600160008760001916600019168152602001908152602001600020818054600181600116156101000203166002900480601f016020809104026020016040519081016040528092919081815260200182805460018160011615610100020316600290048015610cd65780601f10610cab57610100808354040283529160200191610cd6565b820191906000526020600020905b815481529060010190602001808311610cb957829003601f168201915b50505050509150808054600181600116156101000203166002900480601f016020809104026020016040519081016040528092919081815260200182805460018160011615610100020316600290048015610d725780601f10610d4757610100808354040283529160200191610d72565b820191906000526020600020905b815481529060010190602001808311610d5557829003601f168201915b505050505090509250925092509193909250565b600081600260003373ffffffffffffffffffffffffffffffffffffffff1673ffffffffffffffffffffffffffffffffffffffff168152602001908152602001600020600101541015610ddb5760009050610eac565b81600260003373ffffffffffffffffffffffffffffffffffffffff1673ffffffffffffffffffffffffffffffffffffffff168152602001908152602001600020600101600082825403925050819055503373ffffffffffffffffffffffffffffffffffffffff166108fc66038d7ea4c6800084029081150290604051600060405180830381858888f19350505050158015610e7a573d6000803e3d6000fd5b507fc213313638c719edf540cca2536bcbe9644db64381994626d7ec71db7fb33b4560405160405180910390a1600190505b919050565b6001600260003373ffffffffffffffffffffffffffffffffffffffff1673ffffffffffffffffffffffffffffffffffffffff16815260200190815260200160002060000160106101000a81548160ff02191690831515021790555080600260003373ffffffffffffffffffffffffffffffffffffffff1673ffffffffffffffffffffffffffffffffffffffff16815260200190815260200160002060000160006101000a8154816fffffffffffffffffffffffffffffffff02191690837001000000000000000000000000000000009004021790555060033390806001815401808255809150509060018203906000526020600020016000909192909190916101000a81548173ffffffffffffffffffffffffffffffffffffffff021916908373ffffffffffffffffffffffffffffffffffffffff160217905550507fd779175869d01dfbe3c99b666325a8aa49baf7fcfb6c06ba099f55ed4c94d06e60405160405180910390a150565b600080600061102a856131eb565b91506001600260003373ffffffffffffffffffffffffffffffffffffffff1673ffffffffffffffffffffffffffffffffffffffff1681526020019081526020016000206005016000846000191660001916815260200190815260200160002060040160159054906101000a900460000b60000b1415156110ad57600092506113ab565b83600260003373ffffffffffffffffffffffffffffffffffffffff1673ffffffffffffffffffffffffffffffffffffffff1681526020019081526020016000206005016000846000191660001916815260200190815260200160002060040160156101000a81548160ff021916908360000b60ff160217905550600260003373ffffffffffffffffffffffffffffffffffffffff1673ffffffffffffffffffffffffffffffffffffffff168152602001908152602001600020600501600083600019166000191681526020019081526020016000206001015460026000600260003373ffffffffffffffffffffffffffffffffffffffff1673ffffffffffffffffffffffffffffffffffffffff1681526020019081526020016000206005016000866000191660001916815260200190815260200160002060040160009054906101000a900473ffffffffffffffffffffffffffffffffffffffff1673ffffffffffffffffffffffffffffffffffffffff1673ffffffffffffffffffffffffffffffffffffffff1681526020019081526020016000206001016000828254019250508190555060026000600260003373ffffffffffffffffffffffffffffffffffffffff1673ffffffffffffffffffffffffffffffffffffffff1681526020019081526020016000206005016000856000191660001916815260200190815260200160002060040160009054906101000a900473ffffffffffffffffffffffffffffffffffffffff1673ffffffffffffffffffffffffffffffffffffffff1673ffffffffffffffffffffffffffffffffffffffff168152602001908152602001600020905083816005016000846000191660001916815260200190815260200160002060040160156101000a81548160ff021916908360000b60ff1602179055507fc213313638c719edf540cca2536bcbe9644db64381994626d7ec71db7fb33b4560405160405180910390a17fa0a0afa7cda3b4bf6eae81efc1eb59155788d4ff1971633c10f1e190bc844d6b60405160405180910390a1600192505b505092915050565b60008060006113c1856131eb565b91506001600260003373ffffffffffffffffffffffffffffffffffffffff1673ffffffffffffffffffffffffffffffffffffffff1681526020019081526020016000206005016000846000191660001916815260200190815260200160002060040160159054906101000a900460000b60000b1415156114445760009250611807565b83600260003373ffffffffffffffffffffffffffffffffffffffff1673ffffffffffffffffffffffffffffffffffffffff1681526020019081526020016000206005016000846000191660001916815260200190815260200160002060040160156101000a81548160ff021916908360000b60ff160217905550600260003373ffffffffffffffffffffffffffffffffffffffff1673ffffffffffffffffffffffffffffffffffffffff1681526020019081526020016000206005016000836000191660001916815260200190815260200160002060010154600260003373ffffffffffffffffffffffffffffffffffffffff1673ffffffffffffffffffffffffffffffffffffffff1681526020019081526020016000206001016000828254019250508190555060026000600260003373ffffffffffffffffffffffffffffffffffffffff1673ffffffffffffffffffffffffffffffffffffffff1681526020019081526020016000206005016000856000191660001916815260200190815260200160002060040160009054906101000a900473ffffffffffffffffffffffffffffffffffffffff1673ffffffffffffffffffffffffffffffffffffffff1673ffffffffffffffffffffffffffffffffffffffff168152602001908152602001600020905083816005016000846000191660001916815260200190815260200160002060040160156101000a81548160ff021916908360000b60ff160217905550600260003373ffffffffffffffffffffffffffffffffffffffff1673ffffffffffffffffffffffffffffffffffffffff1681526020019081526020016000206005016000836000191660001916815260200190815260200160002060000160109054906101000a900460000b816004016000600260003373ffffffffffffffffffffffffffffffffffffffff1673ffffffffffffffffffffffffffffffffffffffff16815260200190815260200160002060050160008660001916600019168152602001908152602001600020600201546000191660001916815260200190815260200160002060000160108282829054906101000a900460000b0192506101000a81548160ff021916908360000b60ff1602179055507fc213313638c719edf540cca2536bcbe9644db64381994626d7ec71db7fb33b4560405160405180910390a17f0d54c2d26ca57a12677c490f254d19a0ac84041ab769e1e6bf705991394a3a2360405160405180910390a17fa0a0afa7cda3b4bf6eae81efc1eb59155788d4ff1971633c10f1e190bc844d6b60405160405180910390a1600192505b505092915050565b6060806060806060806000606080606080606080600080600080995060045460405190808252806020026020018201604052801561185c5781602001602082028038833980820191505090505b5098506004546040519080825280602002602001820160405280156118905781602001602082028038833980820191505090505b5097506004546040519080825280602002602001820160405280156118c45781602001602082028038833980820191505090505b5096506004546040519080825280602002602001820160405280156118f85781602001602082028038833980820191505090505b50955060045460405190808252806020026020018201604052801561192c5781602001602082028038833980820191505090505b5094506004546040519080825280602002602001820160405280156119605781602001602082028038833980820191505090505b509350600092505b600380549050831015611ebd57600091505b6002600060038581548110151561198d57fe5b9060005260206000200160009054906101000a900473ffffffffffffffffffffffffffffffffffffffff1673ffffffffffffffffffffffffffffffffffffffff1673ffffffffffffffffffffffffffffffffffffffff16815260200190815260200160002060020180549050821015611eb05760026000600385815481101515611a1357fe5b9060005260206000200160009054906101000a900473ffffffffffffffffffffffffffffffffffffffff1673ffffffffffffffffffffffffffffffffffffffff1673ffffffffffffffffffffffffffffffffffffffff16815260200190815260200160002060020182815481101515611a8857fe5b90600052602060002001549050600383815481101515611aa457fe5b9060005260206000200160009054906101000a900473ffffffffffffffffffffffffffffffffffffffff16898b815181101515611add57fe5b9060200190602002019073ffffffffffffffffffffffffffffffffffffffff16908173ffffffffffffffffffffffffffffffffffffffff168152505060026000600385815481101515611b2c57fe5b9060005260206000200160009054906101000a900473ffffffffffffffffffffffffffffffffffffffff1673ffffffffffffffffffffffffffffffffffffffff1673ffffffffffffffffffffffffffffffffffffffff16815260200190815260200160002060000160009054906101000a9004700100000000000000000000000000000000026fffffffffffffffffffffffffffffffff1916848b815181101515611bd357fe5b90602001906020020190600019169081600019168152505060026000600385815481101515611bfe57fe5b9060005260206000200160009054906101000a900473ffffffffffffffffffffffffffffffffffffffff1673ffffffffffffffffffffffffffffffffffffffff1673ffffffffffffffffffffffffffffffffffffffff1681526020019081526020016000206004016000826000191660001916815260200190815260200160002060000160119054906101000a900460000b888b815181101515611c9e57fe5b9060200190602002019060000b908160000b8152505060026000600385815481101515611cc757fe5b9060005260206000200160009054906101000a900473ffffffffffffffffffffffffffffffffffffffff1673ffffffffffffffffffffffffffffffffffffffff1673ffffffffffffffffffffffffffffffffffffffff1681526020019081526020016000206004016000826000191660001916815260200190815260200160002060000160109054906101000a900460000b878b815181101515611d6757fe5b9060200190602002019060000b908160000b8152505080858b815181101515611d8c57fe5b90602001906020020190600019169081600019168152505060026000600385815481101515611db757fe5b9060005260206000200160009054906101000a900473ffffffffffffffffffffffffffffffffffffffff1673ffffffffffffffffffffffffffffffffffffffff1673ffffffffffffffffffffffffffffffffffffffff1681526020019081526020016000206004016000826000191660001916815260200190815260200160002060000160009054906101000a900470010000000000000000000000000000000002868b815181101515611e6757fe5b906020019060200201906fffffffffffffffffffffffffffffffff191690816fffffffffffffffffffffffffffffffff19168152505060018a019950818060010192505061197a565b8280600101935050611968565b8885878a8a889f509f509f509f509f509f5050505050505050505050909192939495565b6000600260003373ffffffffffffffffffffffffffffffffffffffff1673ffffffffffffffffffffffffffffffffffffffff16815260200190815260200160002060030180549050905090565b6000600260003373ffffffffffffffffffffffffffffffffffffffff1673ffffffffffffffffffffffffffffffffffffffff168152602001908152602001600020600401600088600019166000191681526020019081526020016000209050848160000160106101000a81548160ff021916908360000b60ff160217905550858160000160006101000a8154816fffffffffffffffffffffffffffffffff021916908370010000000000000000000000000000000090040217905550838160000160116101000a81548160ff021916908360000b60ff160217905550826000808960001916600019168152602001908152602001600020908051906020019061203892919061325c565b5081600160008960001916600019168152602001908152602001600020908051906020019061206892919061325c565b507f0d54c2d26ca57a12677c490f254d19a0ac84041ab769e1e6bf705991394a3a2360405160405180910390a150505050505050565b6000600260003373ffffffffffffffffffffffffffffffffffffffff1673ffffffffffffffffffffffffffffffffffffffff16815260200190815260200160002060010154905090565b600080600080600080600080600080612103600a8c016131eb565b9050600a8b0160026000600260003373ffffffffffffffffffffffffffffffffffffffff1673ffffffffffffffffffffffffffffffffffffffff1681526020019081526020016000206005016000856000191660001916815260200190815260200160002060040160009054906101000a900473ffffffffffffffffffffffffffffffffffffffff1673ffffffffffffffffffffffffffffffffffffffff1673ffffffffffffffffffffffffffffffffffffffff16815260200190815260200160002060000160009054906101000a900470010000000000000000000000000000000002600260003373ffffffffffffffffffffffffffffffffffffffff1673ffffffffffffffffffffffffffffffffffffffff1681526020019081526020016000206005016000846000191660001916815260200190815260200160002060010154600260003373ffffffffffffffffffffffffffffffffffffffff1673ffffffffffffffffffffffffffffffffffffffff1681526020019081526020016000206005016000856000191660001916815260200190815260200160002060000160109054906101000a900460000b600260003373ffffffffffffffffffffffffffffffffffffffff1673ffffffffffffffffffffffffffffffffffffffff1681526020019081526020016000206005016000866000191660001916815260200190815260200160002060020154600260003373ffffffffffffffffffffffffffffffffffffffff1673ffffffffffffffffffffffffffffffffffffffff1681526020019081526020016000206005016000876000191660001916815260200190815260200160002060000160009054906101000a900470010000000000000000000000000000000002600260003373ffffffffffffffffffffffffffffffffffffffff1673ffffffffffffffffffffffffffffffffffffffff1681526020019081526020016000206005016000886000191660001916815260200190815260200160002060030154600260003373ffffffffffffffffffffffffffffffffffffffff1673ffffffffffffffffffffffffffffffffffffffff1681526020019081526020016000206005016000896000191660001916815260200190815260200160002060040160149054906101000a900460000b600260003373ffffffffffffffffffffffffffffffffffffffff1673ffffffffffffffffffffffffffffffffffffffff16815260200190815260200160002060050160008a6000191660001916815260200190815260200160002060040160159054906101000a900460000b876fffffffffffffffffffffffffffffffff19169750995099509950995099509950995099509950509193959799909294969850565b600080600080600080600260003373ffffffffffffffffffffffffffffffffffffffff1673ffffffffffffffffffffffffffffffffffffffff1681526020019081526020016000209450600260008c73ffffffffffffffffffffffffffffffffffffffff1673ffffffffffffffffffffffffffffffffffffffff1681526020019081526020016000209350878560010154101561259a5760019550612b82565b8785600101600082825403925050819055507fc213313638c719edf540cca2536bcbe9644db64381994626d7ec71db7fb33b4560405160405180910390a16125eb600a8660030180549050016131eb565b9250612600600a8560030180549050016131eb565b9150600260008c73ffffffffffffffffffffffffffffffffffffffff1673ffffffffffffffffffffffffffffffffffffffff16815260200190815260200160002060040160008b6000191660001916815260200190815260200160002090508860000b8160000160109054906101000a900460000b60000b12156126875760029550612b82565b888160000160108282829054906101000a900460000b0392506101000a81548160ff021916908360000b60ff1602179055507f0d54c2d26ca57a12677c490f254d19a0ac84041ab769e1e6bf705991394a3a2360405160405180910390a1846003018390806001815401808255809150509060018203906000526020600020016000909192909190915090600019169055508060000160009054906101000a900470010000000000000000000000000000000002856005016000856000191660001916815260200190815260200160002060000160006101000a8154816fffffffffffffffffffffffffffffffff021916908370010000000000000000000000000000000090040217905550898560050160008560001916600019168152602001908152602001600020600201816000191690555088856005016000856000191660001916815260200190815260200160002060000160106101000a81548160ff021916908360000b60ff16021790555087856005016000856000191660001916815260200190815260200160002060010181905550868560050160008560001916600019168152602001908152602001600020600301819055508a856005016000856000191660001916815260200190815260200160002060040160006101000a81548173ffffffffffffffffffffffffffffffffffffffff021916908373ffffffffffffffffffffffffffffffffffffffff1602179055506001856005016000856000191660001916815260200190815260200160002060040160146101000a81548160ff021916908360000b60ff1602179055506001856005016000856000191660001916815260200190815260200160002060040160156101000a81548160ff021916908360000b60ff160217905550836003018290806001815401808255809150509060018203906000526020600020016000909192909190915090600019169055508060000160009054906101000a900470010000000000000000000000000000000002846005016000846000191660001916815260200190815260200160002060000160006101000a8154816fffffffffffffffffffffffffffffffff021916908370010000000000000000000000000000000090040217905550898460050160008460001916600019168152602001908152602001600020600201816000191690555088846005016000846000191660001916815260200190815260200160002060000160106101000a81548160ff021916908360000b60ff160217905550878460050160008460001916600019168152602001908152602001600020600101819055508684600501600084600019166000191681526020019081526020016000206003018190555033846005016000846000191660001916815260200190815260200160002060040160006101000a81548173ffffffffffffffffffffffffffffffffffffffff021916908373ffffffffffffffffffffffffffffffffffffffff1602179055506002846005016000846000191660001916815260200190815260200160002060040160146101000a81548160ff021916908360000b60ff1602179055506001846005016000846000191660001916815260200190815260200160002060040160156101000a81548160ff021916908360000b60ff1602179055507fa0a0afa7cda3b4bf6eae81efc1eb59155788d4ff1971633c10f1e190bc844d6b60405160405180910390a1600395505b505050505095945050505050565b600066038d7ea4c6800034811515612ba457fe5b0482141515612bb257600080fd5b81600260003373ffffffffffffffffffffffffffffffffffffffff1673ffffffffffffffffffffffffffffffffffffffff168152602001908152602001600020600101600082825401925050819055507fc213313638c719edf540cca2536bcbe9644db64381994626d7ec71db7fb33b4560405160405180910390a160019050919050565b6000806000339250600091506001600260008573ffffffffffffffffffffffffffffffffffffffff1673ffffffffffffffffffffffffffffffffffffffff168152602001908152602001600020600201805490501415612d9d57600260008473ffffffffffffffffffffffffffffffffffffffff1673ffffffffffffffffffffffffffffffffffffffff1681526020019081526020016000206002016000815481101515612ce157fe5b9060005260206000200160009055600260008473ffffffffffffffffffffffffffffffffffffffff1673ffffffffffffffffffffffffffffffffffffffff16815260200190815260200160002060040160008560001916600019168152602001908152602001600020600080820160006101000a8154906fffffffffffffffffffffffffffffffff02191690556000820160106101000a81549060ff02191690556000820160116101000a81549060ff02191690555050612fe3565b600090505b6001600260008573ffffffffffffffffffffffffffffffffffffffff1673ffffffffffffffffffffffffffffffffffffffff1681526020019081526020016000206002018054905003811015612fe2578360001916600260008573ffffffffffffffffffffffffffffffffffffffff1673ffffffffffffffffffffffffffffffffffffffff16815260200190815260200160002060020182815481101515612e4657fe5b9060005260206000200154600019161415612f095760019150600260008473ffffffffffffffffffffffffffffffffffffffff1673ffffffffffffffffffffffffffffffffffffffff16815260200190815260200160002060040160008560001916600019168152602001908152602001600020600080820160006101000a8154906fffffffffffffffffffffffffffffffff02191690556000820160106101000a81549060ff02191690556000820160116101000a81549060ff021916905550505b600115158215151415612fd557600260008473ffffffffffffffffffffffffffffffffffffffff1673ffffffffffffffffffffffffffffffffffffffff16815260200190815260200160002060020160018201815481101515612f6857fe5b9060005260206000200154600260008573ffffffffffffffffffffffffffffffffffffffff1673ffffffffffffffffffffffffffffffffffffffff16815260200190815260200160002060020182815481101515612fc257fe5b9060005260206000200181600019169055505b8080600101915050612da2565b5b6001600260008573ffffffffffffffffffffffffffffffffffffffff1673ffffffffffffffffffffffffffffffffffffffff1681526020019081526020016000206002018054905003600260008573ffffffffffffffffffffffffffffffffffffffff1673ffffffffffffffffffffffffffffffffffffffff1681526020019081526020016000206002018161307991906132dc565b5060016004600082825403925050819055507f0d54c2d26ca57a12677c490f254d19a0ac84041ab769e1e6bf705991394a3a2360405160405180910390a150505050565b600080600260003373ffffffffffffffffffffffffffffffffffffffff1673ffffffffffffffffffffffffffffffffffffffff16815260200190815260200160002060000160109054906101000a900460ff1615613180576001600260003373ffffffffffffffffffffffffffffffffffffffff1673ffffffffffffffffffffffffffffffffffffffff16815260200190815260200160002060000160009054906101000a900470010000000000000000000000000000000002915091506131e7565b6000600260003373ffffffffffffffffffffffffffffffffffffffff1673ffffffffffffffffffffffffffffffffffffffff16815260200190815260200160002060000160009054906101000a900470010000000000000000000000000000000002915091505b9091565b6000816001029050919050565b816000808560001916600019168152602001908152602001600020908051906020019061322692919061325c565b5080600160008560001916600019168152602001908152602001600020908051906020019061325692919061325c565b50505050565b828054600181600116156101000203166002900490600052602060002090601f016020900481019282601f1061329d57805160ff19168380011785556132cb565b828001600101855582156132cb579182015b828111156132ca5782518255916020019190600101906132af565b5b5090506132d89190613308565b5090565b81548183558181111561330357818360005260206000209182019101613302919061332d565b5b505050565b61332a91905b8082111561332657600081600090555060010161330e565b5090565b90565b61334f91905b8082111561334b576000816000905550600101613333565b5090565b905600a165627a7a72305820d93c7d6e7afc29056a1fb6cfa2a13e0021a3f44342834c9aa5d39ab8cd693a530029",
  "source": "pragma solidity ^0.4.18;\r\ncontract ShopingItem {\r\n    event update_items();\r\n    event update_account();\r\n    event update_history();\r\n    event update_balance();\r\n    struct Item{\r\n        bytes16 name;\r\n        int8 amount;\r\n        int8 price;\r\n        // bytes32  id;\r\n    }\r\n    struct Item_history{\r\n        bytes16 name;\r\n        int8 amount;\r\n        uint value;\r\n        bytes32  id;\r\n        uint time;\r\n        address trader;\r\n        int8 trade_type;\r\n        int8 trade_status;\r\n    }\r\n    struct account {\r\n        bytes16 nickname;\r\n        bool used;\r\n        uint256 balance;\r\n        bytes32[]   Selling_items_list;\r\n        // bytes32[]   Purchased_history_list;\r\n        bytes32[]   trade_history_list;\r\n        mapping(bytes32 => Item) Selling_item;\r\n        // mapping(bytes32 => Item_history) history;\r\n        mapping(bytes32 => Item_history) trade_history;\r\n    }\r\n    mapping(bytes32 => string)  descriptions;\r\n    mapping(bytes32 => string)  images;\r\n    mapping(address => account) accounts;\r\n    address[] private accounts_list;\r\n    uint item_number=0;\r\n    uint generate_id=10;\r\n    function convert(uint256 n) private returns (bytes32) {\r\n        return bytes32(n);\r\n    }\r\n    function get_desc_image(bytes32 _id) public returns(bytes32,string,string){\r\n        return(_id,descriptions[_id],images[_id]);\r\n    }\r\n    function sell_item(bytes16 _name, int8 _amount, int8 _price,string desc,string image)  public{\r\n        require(accounts[msg.sender].used);\r\n        var item_id = convert(generate_id);\r\n        accounts[msg.sender].Selling_items_list.push(item_id);\r\n        accounts[msg.sender].Selling_item[item_id].name = _name;\r\n        accounts[msg.sender].Selling_item[item_id].amount = _amount;\r\n        accounts[msg.sender].Selling_item[item_id].price = _price;\r\n        add_desc_image(item_id,desc,image);\r\n        item_number+=1;\r\n        generate_id+=1;\r\n        emit update_items();\r\n        // accounts[msg.sender].Selling_item[item_id].id = item_id;\r\n        // descriptions[item_id]=desc;\r\n        // item_number+=1;\r\n        // generate_id+=1;\r\n        // emit update_items();\r\n        // return true;\r\n        \r\n    }\r\n    function add_desc_image(bytes32 item_id,string desc,string image) private{\r\n        // var item_id = convert(generate_id);\r\n        descriptions[item_id]=desc;\r\n        images[item_id]=image;\r\n        // return true;\r\n    }\r\n    function check_account() public returns(bool,bytes16 ){\r\n        if(accounts[msg.sender].used){\r\n            return(true,accounts[msg.sender].nickname);\r\n        }\r\n        return(false,accounts[msg.sender].nickname);\r\n    }\r\n    function init_account(bytes16 nickname) public{\r\n            accounts[msg.sender].used=true;\r\n            accounts[msg.sender].nickname=nickname;\r\n            accounts_list.push(msg.sender);\r\n            emit update_account();\r\n    }\r\n    function get_itemlist() public  returns(address[],bytes32[],bytes16[],int8[],int8[],bytes32[]){\r\n        uint index = 0;\r\n        address[]  memory seller_list = new address[](item_number);\r\n        int8[]   memory  price_list = new int8[](item_number);\r\n        int8[]    memory amount_list= new int8[](item_number);\r\n        bytes16[]   memory  name_list= new bytes16[](item_number);\r\n        bytes32[] memory item_id_list= new bytes32[](item_number);\r\n        bytes32[] memory seller_name_list= new bytes32[](item_number);\r\n        for(uint i=0;i<accounts_list.length;i++){\r\n            for(uint j=0;j<accounts[accounts_list[i]].Selling_items_list.length;j++){\r\n                var item_id = accounts[accounts_list[i]].Selling_items_list[j];\r\n                seller_list[index]=accounts_list[i];\r\n                seller_name_list[index]=accounts[accounts_list[i]].nickname;\r\n                price_list[index]=accounts[accounts_list[i]].Selling_item[item_id].price;\r\n                amount_list[index]=accounts[accounts_list[i]].Selling_item[item_id].amount;\r\n                item_id_list[index]=item_id;\r\n                name_list[index]=accounts[accounts_list[i]].Selling_item[item_id].name;\r\n                index+=1;\r\n            }\r\n        }\r\n        return(seller_list,item_id_list,name_list,price_list,amount_list,seller_name_list);\r\n    }\r\n    function modify_item(bytes32 item_id,bytes16 name,int8 _amount,int8 _price,string desc,string image) public{\r\n        // if(vertify_user(user_adress,msg.sender) && vertify_item(user_adress,item_id))\r\n            Item temp = accounts[msg.sender].Selling_item[item_id];\r\n            temp.amount=_amount;\r\n            temp.name=name;\r\n            temp.price=_price;\r\n            descriptions[item_id]=desc;\r\n            images[item_id]=image;\r\n            emit update_items();\r\n            // return true;\r\n        // }\r\n        // return false;\r\n    }\r\n    // function vertify_user(address _address,address owner) returns(bool flag){\r\n    //     if(_address==owner){\r\n    //         return true;\r\n    //     }else{\r\n    //         return false;\r\n    //     }\r\n    // }\r\n    function delete_item( bytes32 item_id) {\r\n        // if(vertify_user(user_adress,msg.sender) && vertify_item(user_adress,item_id)){\r\n            var user_adress=msg.sender;\r\n            bool j=false;\r\n            if(accounts[user_adress].Selling_items_list.length==1){\r\n                delete accounts[user_adress].Selling_items_list[0];\r\n                delete accounts[user_adress].Selling_item[item_id];\r\n            }\r\n            else{\r\n                for (uint i = 0; i<accounts[user_adress].Selling_items_list.length-1; i++){\r\n                    if(accounts[user_adress].Selling_items_list[i]==item_id){\r\n                        j=true;\r\n                        delete accounts[user_adress].Selling_item[item_id];\r\n                    }\r\n                    if(j==true){\r\n                        accounts[user_adress].Selling_items_list[i]=accounts[user_adress].Selling_items_list[i+1];\r\n                    }\r\n                }\r\n            }\r\n            accounts[user_adress].Selling_items_list.length=accounts[user_adress].Selling_items_list.length-1;\r\n            item_number-=1;\r\n            emit update_items();\r\n            // return true;\r\n        // }\r\n        // return false;\r\n    }\r\n    // function vertify_item(address _address,bytes32 item_id) returns(bool flag){\r\n    //     bytes32 v;\r\n    //     if(accounts[_address].Selling_item[item_id].id ==v){\r\n    //         return false;\r\n    //     }\r\n    //     return true;\r\n    // }\r\n    function buy_item(address seller_address,bytes32 item_id,int8 amount_of_buy,uint value,uint time) public returns(uint256){\r\n        account buyer = accounts[msg.sender];\r\n        account seller = accounts[seller_address];\r\n        if(buyer.balance<value){\r\n            return 1;\r\n        }\r\n        buyer.balance-=value;\r\n        emit update_balance();\r\n        // msg.sender.transfer(value);\r\n        // seller_address.transfer(this.balance);\r\n        bytes32 buy_id = convert( buyer.trade_history_list.length+10);\r\n        bytes32 sell_id = convert( seller.trade_history_list.length+10);\r\n        Item i = accounts[seller_address].Selling_item[item_id];\r\n        if(i.amount<amount_of_buy){\r\n            return 2;\r\n        }\r\n        i.amount-=amount_of_buy;\r\n        emit update_items();\r\n        buyer.trade_history_list.push(buy_id);\r\n        buyer.trade_history[buy_id].name = i.name;\r\n        buyer.trade_history[buy_id].id =item_id;\r\n        buyer.trade_history[buy_id].amount = amount_of_buy;\r\n        buyer.trade_history[buy_id].value = value;\r\n        buyer.trade_history[buy_id].time = time;\r\n        buyer.trade_history[buy_id].trader = seller_address;\r\n        buyer.trade_history[buy_id].trade_type =1;\r\n        buyer.trade_history[buy_id].trade_status =1;\r\n        seller.trade_history_list.push(sell_id);\r\n        seller.trade_history[sell_id].name = i.name;\r\n        seller.trade_history[sell_id].id = item_id;\r\n        seller.trade_history[sell_id].amount = amount_of_buy;\r\n        seller.trade_history[sell_id].value = value;\r\n        seller.trade_history[sell_id].time = time;\r\n        seller.trade_history[sell_id].trader = msg.sender;\r\n        seller.trade_history[sell_id].trade_type = 2;\r\n        seller.trade_history[sell_id].trade_status =1;\r\n        emit update_history();\r\n        return 3;\r\n    }\r\n    function get_trade_history(uint256 i) public returns(uint256,bytes32,uint,int8,bytes32,bytes16,uint,int8,int8){\r\n            var id = convert(i+10);\r\n            // var trader=accounts[accounts[msg.sender].trade_history[id].trader].nickname;\r\n            // var value=accounts[msg.sender].trade_history[id].value;\r\n            // var amount=accounts[msg.sender].trade_history[id].amount;\r\n            // var item_id=accounts[msg.sender].trade_history[id].id;\r\n            // var name=accounts[msg.sender].trade_history[id].name;\r\n            // var time=accounts[msg.sender].trade_history[id].time;\r\n            // var trade_type=accounts[msg.sender].trade_history[id].trade_type;\r\n            // var trade_status=accounts[msg.sender].trade_history[id].trade_status;\r\n            return(i+10,accounts[accounts[msg.sender].trade_history[id].trader].nickname,\r\n            accounts[msg.sender].trade_history[id].value,accounts[msg.sender].trade_history[id].amount,\r\n            accounts[msg.sender].trade_history[id].id,accounts[msg.sender].trade_history[id].name,\r\n            accounts[msg.sender].trade_history[id].time,accounts[msg.sender].trade_history[id].trade_type,\r\n            accounts[msg.sender].trade_history[id].trade_status);\r\n        \r\n    }\r\n    function get_trade_history_length() public returns(uint256){\r\n        return(accounts[msg.sender].trade_history_list.length);\r\n    }\r\n    function top_up(uint256 value) public payable returns(bool){\r\n            require(value==msg.value/(10**15));\r\n            accounts[msg.sender].balance+=value;\r\n            emit update_balance();\r\n            return true;\r\n    }\r\n    function withdraw(uint256 value) public returns(bool){\r\n        if(accounts[msg.sender].balance<value){\r\n            return false;\r\n        }\r\n        accounts[msg.sender].balance-=value;\r\n        msg.sender.transfer(value*(10**15));\r\n        emit update_balance();\r\n        return true;\r\n    }\r\n    // function change_trade_status(uint256 i,int8 status) public returns(bool){\r\n    //     var id = convert(i);\r\n    //     if(accounts[msg.sender].trade_history[id].trade_status!=1){\r\n    //         return false;\r\n    //     }\r\n    //     accounts[msg.sender].trade_history[id].trade_status=status;\r\n    //     return true;\r\n    // }\r\n    function refund(uint256 i, int8 status) public returns(bool){\r\n        var _id = convert(i);\r\n        if(accounts[msg.sender].trade_history[_id].trade_status!=1){\r\n             return false ;\r\n        }\r\n        accounts[msg.sender].trade_history[_id].trade_status=status;\r\n\r\n        accounts[msg.sender].balance+=accounts[msg.sender].trade_history[_id].value;\r\n        account temp=accounts[accounts[msg.sender].trade_history[_id].trader];\r\n        temp.trade_history[_id].trade_status=status;\r\n        temp.Selling_item[accounts[msg.sender].trade_history[_id].id].amount+=accounts[msg.sender].trade_history[_id].amount;\r\n        emit update_balance();\r\n        emit update_items();\r\n        emit update_history();\r\n        return true;\r\n    }\r\n    function finish_trade(uint256 i, int8 status) public returns(bool){\r\n        var id = convert(i);\r\n        if(accounts[msg.sender].trade_history[id].trade_status!=1){\r\n            return false;\r\n        }\r\n        accounts[msg.sender].trade_history[id].trade_status=status;\r\n        accounts[accounts[msg.sender].trade_history[id].trader].balance+=accounts[msg.sender].trade_history[id].value;\r\n        account temp=accounts[accounts[msg.sender].trade_history[id].trader];\r\n        temp.trade_history[id].trade_status=status;\r\n        emit update_balance();\r\n        emit update_history();\r\n        return true;\r\n    }\r\n    function get_balance() public returns(uint256){\r\n        return accounts[msg.sender].balance;\r\n    }\r\n}",
  "sourcePath": "/home/vm9900/moban2605/contracts/ShopingItem.sol",
  "compiler": {
    "name": "solc",
    "version": "0.4.23+commit.124ca40d.Emscripten.clang"
  },
  "schemaVersion": "2.0.0",
  "updatedAt": "2018-05-25T08:25:31.931Z"
}